:1000000019C08AC1B6C131C030C02FC02EC02DC0AA
:100010002CC054C12AC048C128C027C026C025C052
:1000200024C023C022C021C020C01FC01EC01DC0CC
:100030001CC01BC011241FBECFEFD2E0DEBFCDBF5E
:1000400011E0A0E0B1E0E6E1F5E002C005900D921C
:10005000A630B107D9F721E0A6E0B1E001C01D92BA
:10006000AF30B207E1F794D154C2CACFDF92EF921A
:10007000FF920F931F93CF93DF931F92CDB7DEB7FD
:100080001982C9D02FEF87E691E02150804090403F
:10009000E1F700C00000EDD0CE0101966ED08823BC
:1000A000D9F31982CE01019668D089818A30C9F7C7
:1000B0000F2EF9E2DF2EF02D0F2EF4E6EF2EF02DAD
:1000C0000F2EFDECFF2EF02D3FC081D080D0182FD9
:1000D0008D9D012D112402950F7080E3800F45D076
:1000E000812F0E9D801911248F9D812D11248695BD
:1000F00086958695805D39D01F9D812D112486952A
:1001000086958695880F982F990F990F890F181B40
:10011000812F805D2AD08DE028D08AE026D02FEF75
:1001200087E691E0215080409040E1F700C0000058
:10013000CE01019622D08823D9F31982CE010196EF
:100140001CD089818A30C9F74B99BFCFE4E6F0E033
:1001500080818160808388950F90DF91CF911F917E
:100160000F91FF90EF90DF9008958093C600E0EC30
:10017000F0E0808185FFFDCF08952091C00022230B
:1001800034F42091C600FC01208381E0089580E0D2
:1001900008950F931F93CF93DF93FC0101900020EC
:1001A000E9F731971E2F181B49F0082FC02FD92FC0
:1001B0008991DBDF8C2F801B8117D0F38DE0D5DF99
:1001C0008AE0D3DFDF91CF911F910F910895EAE785
:1001D000F0E0808180648083808184FDFDCF809108
:1001E00078009091790096958795969587950895D2
:1001F0001092B10081E0809370008EE18093B20094
:1002000080E28093B60008958EE18093B20087E08B
:100210008093B10008951092B10008958EE080930C
:10022000690083E08DBB089514B817B81AB815B8E3
:1002300018B81BB8089582E08093C00088E18093CD
:10024000C1008EE08093C2001092C4000895E4E6DD
:10025000F0E08081846080838081806280838081FF
:1002600088608083808180688083808181608083D2
:100270000895E4E6F0E080818E7F80838EE48093B1
:100280007C0085E880937A000895F894CDDFD3DF71
:10029000C5DFAEDFDCDF83B7817F866083BF83B7D6
:1002A000816083BF789408951F920F920FB60F92CA
:1002B00011240F900FBE0F901F9018951F920F9250
:1002C0000FB60F9211242F938F939F938EE18093FB
:1002D000B20080910601909107018F519F4F90933A
:1002E0000701809306018438934071F480910801DE
:1002F0008F5F809308011092070110920601809190
:100300000B01826080930B019F918F912F910F9031
:100310000FBE0F901F9018951F920F920FB60F925D
:1003200011242F938F939F93EF93FF93E2EBF0E0D1
:1003300020818091060190910701820F911D4E97B7
:1003400090930A018093090110920701109206010F
:100350008EE1808380910B01816080930B01FF917E
:10036000EF919F918F912F910F900FBE0F901F9043
:1003700018951F920F920FB60F9211248F9384E05D
:1003800080930B018F910F900FBE0F901F901895C7
:100390007CDF80E091E0FDDE83B7817F846083BFF6
:1003A00065DE889510E0C4E8D3E00F2EF9E8FF2E53
:1003B000F02D0CE380910B01823009F476C030F40B
:1003C000882309F48CC0813039F086C0833021F055
:1003D000843009F47BC080C017DF83B7817F8660DB
:1003E00083BF8091090190910A0120910D01309104
:1003F0000E01280F391F30930E0120930D0120911B
:100400000801211123C0883F910518F481E3ADDE76
:1004100024C09C01295F31092731310518F482E39A
:10042000A4DE1BC09C0121513140203A310518F453
:1004300083E39BDE12C0825B9140883C910518F4F7
:1004400084E393DE0AC085E390DE07C086E38DDE99
:1004500080910801180F1092080110920A01109261
:10046000090180910D0190910E01BE013ED0160F41
:1004700090930E0180930D011F9D812D1124829573
:100480008695877090910C01980F809F1019112408
:10049000963018F490930C0102C010920C018091D8
:1004A0000B018E7F80930B011AC0809108018B3065
:1004B00028F0B1DE83B7817F846083BF80910B0118
:1004C0008D7F80930B0183E750DE09C010920B01F2
:1004D00081E64BDECBDD03C010920B0104C080919E
:1004E0000B01811167CF889565CFAA1BBB1B51E11A
:1004F00007C0AA1FBB1FA617B70710F0A61BB70B94
:10050000881F991F5A95A9F780959095BC01CD0138
:060510000895F894FFCFEE
:060516006D61696E00003A
:00000001FF
